{
  "contractName": "Diario",
  "abi": [
    {
      "constant": true,
      "inputs": [],
      "name": "getOwnNumEntradas",
      "outputs": [
        {
          "internalType": "uint256",
          "name": "",
          "type": "uint256"
        }
      ],
      "payable": false,
      "stateMutability": "view",
      "type": "function"
    },
    {
      "constant": false,
      "inputs": [
        {
          "internalType": "string",
          "name": "contenido",
          "type": "string"
        },
        {
          "internalType": "uint256",
          "name": "fecha",
          "type": "uint256"
        }
      ],
      "name": "setEntrada",
      "outputs": [],
      "payable": false,
      "stateMutability": "nonpayable",
      "type": "function"
    },
    {
      "constant": true,
      "inputs": [
        {
          "internalType": "uint256",
          "name": "i",
          "type": "uint256"
        }
      ],
      "name": "getContenidoEntada",
      "outputs": [
        {
          "internalType": "string",
          "name": "",
          "type": "string"
        }
      ],
      "payable": false,
      "stateMutability": "view",
      "type": "function"
    },
    {
      "constant": true,
      "inputs": [
        {
          "internalType": "uint256",
          "name": "i",
          "type": "uint256"
        }
      ],
      "name": "getFechaEntrada",
      "outputs": [
        {
          "internalType": "uint256",
          "name": "",
          "type": "uint256"
        }
      ],
      "payable": false,
      "stateMutability": "view",
      "type": "function"
    }
  ],
  "bytecode": "0x608060405234801561001057600080fd5b506106a0806100206000396000f3fe608060405234801561001057600080fd5b506004361061004c5760003560e01c80632f1dd34814610051578063709da71a146100f85780639b23d8d914610116578063ff397bb6146101db575b600080fd5b61007d6004803603602081101561006757600080fd5b810190808035906020019092919050505061021d565b6040518080602001828103825283818151815260200191508051906020019080838360005b838110156100bd5780820151818401526020810190506100a2565b50505050905090810190601f1680156100ea5780820380516001836020036101000a031916815260200191505b509250505060405180910390f35b610100610311565b6040518082815260200191505060405180910390f35b6101d96004803603604081101561012c57600080fd5b810190808035906020019064010000000081111561014957600080fd5b82018360208201111561015b57600080fd5b8035906020019184600183028401116401000000008311171561017d57600080fd5b91908080601f016020809104026020016040519081016040528093929190818152602001838380828437600081840152601f19601f82011690508083019250505050505050919291929080359060200190929190505050610358565b005b610207600480360360208110156101f157600080fd5b810190808035906020019092919050505061050f565b6040518082815260200191505060405180910390f35b60606000803373ffffffffffffffffffffffffffffffffffffffff1673ffffffffffffffffffffffffffffffffffffffff16815260200190815260200160002060008381526020019081526020016000206000018054600181600116156101000203166002900480601f0160208091040260200160405190810160405280929190818152602001828054600181600116156101000203166002900480156103055780601f106102da57610100808354040283529160200191610305565b820191906000526020600020905b8154815290600101906020018083116102e857829003601f168201915b50505050509050919050565b6000600160003373ffffffffffffffffffffffffffffffffffffffff1673ffffffffffffffffffffffffffffffffffffffff16815260200190815260200160002054905090565b6000610362610311565b90506000811461041757816000803373ffffffffffffffffffffffffffffffffffffffff1673ffffffffffffffffffffffffffffffffffffffff16815260200190815260200160002060008381526020019081526020016000206001015410610416576040517f08c379a000000000000000000000000000000000000000000000000000000000815260040180806020018281038252604181526020018061062b6041913960600191505060405180910390fd5b5b600160003373ffffffffffffffffffffffffffffffffffffffff1673ffffffffffffffffffffffffffffffffffffffff1681526020019081526020016000206000815480929190600101919050555061046e610311565b905061047861056b565b6040518060400160405280858152602001848152509050806000803373ffffffffffffffffffffffffffffffffffffffff1673ffffffffffffffffffffffffffffffffffffffff168152602001908152602001600020600084815260200190815260200160002060008201518160000190805190602001906104fb929190610585565b506020820151816001015590505050505050565b60008060003373ffffffffffffffffffffffffffffffffffffffff1673ffffffffffffffffffffffffffffffffffffffff1681526020019081526020016000206000838152602001908152602001600020600101549050919050565b604051806040016040528060608152602001600081525090565b828054600181600116156101000203166002900490600052602060002090601f016020900481019282601f106105c657805160ff19168380011785556105f4565b828001600101855582156105f4579182015b828111156105f35782518255916020019190600101906105d8565b5b5090506106019190610605565b5090565b61062791905b8082111561062357600081600090555060010161060b565b5090565b9056fe4c6120666563686120696e74726f647563696461206465626520736572206d61796f7220717565206c61206465206c6120616e746572696f7220656e7472616461a265627a7a72315820a81ff9fe2133c0052b0f974ec031a9569ee90bea20602d734a88159327a49d7764736f6c63430005100032",
  "source": "pragma solidity >0.4.2;\n\ncontract Diario{\n\n    struct Entrada {\n        string contenido;\n        uint256 fecha;\n    }\n\n    mapping (address => mapping(uint => Entrada)) private entradas;\n    mapping (address => uint) private numEntradas;\n\n    function getOwnNumEntradas() public view returns (uint) {\n        return numEntradas[msg.sender];\n    }\n\n    function setEntrada(string memory contenido, uint256 fecha) public {\n        uint numEnt = getOwnNumEntradas();\n        if (numEnt != 0) {\n            require(entradas[msg.sender][numEnt].fecha < fecha, \"La fecha introducida debe ser mayor que la de la anterior entrada\");\n        }\n        numEntradas[msg.sender]++;\n        numEnt = getOwnNumEntradas();\n        Entrada memory nuevaEntrada = Entrada(contenido, fecha);\n        entradas[msg.sender][numEnt] = nuevaEntrada;\n    }\n\n    function getContenidoEntada(uint i) public view returns (string memory) {\n        return entradas[msg.sender][i].contenido;\n    }\n\n    function getFechaEntrada(uint i) public view returns (uint256) {\n        return entradas[msg.sender][i].fecha;\n    }\n\n}",
  "sourcePath": "/home/marcos/Escritorio/TFG/diario/contracts/Diario.sol",
  "compiler": {
    "name": "solc",
    "version": "0.5.16+commit.9c3226ce.Emscripten.clang"
  },
  "schemaVersion": "3.1.0",
  "updatedAt": "2020-07-10T15:03:07.167Z",
  "networkType": "ethereum",
  "devdoc": {
    "methods": {}
  },
  "userdoc": {
    "methods": {}
  }
}