{
  "contractName": "TresRaya",
  "abi": [
    {
      "inputs": [],
      "payable": false,
      "stateMutability": "nonpayable",
      "type": "constructor"
    },
    {
      "anonymous": false,
      "inputs": [
        {
          "indexed": false,
          "internalType": "uint256",
          "name": "x",
          "type": "uint256"
        },
        {
          "indexed": false,
          "internalType": "uint256",
          "name": "y",
          "type": "uint256"
        },
        {
          "indexed": false,
          "internalType": "uint256",
          "name": "turno",
          "type": "uint256"
        },
        {
          "indexed": false,
          "internalType": "uint256",
          "name": "ganador",
          "type": "uint256"
        }
      ],
      "name": "movimientoRealizado",
      "type": "event"
    },
    {
      "constant": false,
      "inputs": [],
      "name": "reset",
      "outputs": [],
      "payable": false,
      "stateMutability": "nonpayable",
      "type": "function"
    },
    {
      "constant": true,
      "inputs": [
        {
          "internalType": "uint256",
          "name": "i",
          "type": "uint256"
        },
        {
          "internalType": "uint256",
          "name": "j",
          "type": "uint256"
        }
      ],
      "name": "getTablero",
      "outputs": [
        {
          "internalType": "uint256",
          "name": "",
          "type": "uint256"
        }
      ],
      "payable": false,
      "stateMutability": "view",
      "type": "function"
    },
    {
      "constant": true,
      "inputs": [],
      "name": "hayHueco",
      "outputs": [
        {
          "internalType": "bool",
          "name": "",
          "type": "bool"
        }
      ],
      "payable": false,
      "stateMutability": "view",
      "type": "function"
    },
    {
      "constant": true,
      "inputs": [],
      "name": "hayJugador1",
      "outputs": [
        {
          "internalType": "bool",
          "name": "",
          "type": "bool"
        }
      ],
      "payable": false,
      "stateMutability": "view",
      "type": "function"
    },
    {
      "constant": false,
      "inputs": [],
      "name": "setPlayer1",
      "outputs": [],
      "payable": false,
      "stateMutability": "nonpayable",
      "type": "function"
    },
    {
      "constant": false,
      "inputs": [],
      "name": "setPlayer2",
      "outputs": [],
      "payable": false,
      "stateMutability": "nonpayable",
      "type": "function"
    },
    {
      "constant": false,
      "inputs": [
        {
          "internalType": "uint256",
          "name": "x",
          "type": "uint256"
        },
        {
          "internalType": "uint256",
          "name": "y",
          "type": "uint256"
        }
      ],
      "name": "movimiento",
      "outputs": [],
      "payable": false,
      "stateMutability": "nonpayable",
      "type": "function"
    }
  ],
  "bytecode": "0x60806040523480156200001157600080fd5b50620000226200002860201b60201c565b62000357565b60008060006101000a81548173ffffffffffffffffffffffffffffffffffffffff021916908373ffffffffffffffffffffffffffffffffffffffff1602179055506000600160006101000a81548173ffffffffffffffffffffffffffffffffffffffff021916908373ffffffffffffffffffffffffffffffffffffffff1602179055506000600160146101000a81548160ff02191690836002811115620000cb57fe5b021790555060006002600060038110620000e157fe5b01600060038110620000ef57fe5b602091828204019190066101000a81548160ff021916908360028111156200011357fe5b0217905550600060026000600381106200012957fe5b016001600381106200013757fe5b602091828204019190066101000a81548160ff021916908360028111156200015b57fe5b0217905550600060026000600381106200017157fe5b016002600381106200017f57fe5b602091828204019190066101000a81548160ff02191690836002811115620001a357fe5b021790555060006002600160038110620001b957fe5b01600060038110620001c757fe5b602091828204019190066101000a81548160ff02191690836002811115620001eb57fe5b0217905550600060026001600381106200020157fe5b016001600381106200020f57fe5b602091828204019190066101000a81548160ff021916908360028111156200023357fe5b0217905550600060026001600381106200024957fe5b016002600381106200025757fe5b602091828204019190066101000a81548160ff021916908360028111156200027b57fe5b02179055506000600280600381106200029057fe5b016000600381106200029e57fe5b602091828204019190066101000a81548160ff02191690836002811115620002c257fe5b0217905550600060028060038110620002d757fe5b01600160038110620002e557fe5b602091828204019190066101000a81548160ff021916908360028111156200030957fe5b02179055506000600280600381106200031e57fe5b016002600381106200032c57fe5b602091828204019190066101000a81548160ff021916908360028111156200035057fe5b0217905550565b61110680620003676000396000f3fe608060405234801561001057600080fd5b506004361061007d5760003560e01c8063a6ade7341161005b578063a6ade734146100fe578063cde1adf11461014a578063d582f13114610154578063d826f88f1461015e5761007d565b80630e71a9a91461008257806328d0124c146100a457806398b10dc7146100dc575b600080fd5b61008a610168565b604051808215151515815260200191505060405180910390f35b6100da600480360360408110156100ba57600080fd5b8101908080359060200190929190803590602001909291905050506101c0565b005b6100e46104f9565b604051808215151515815260200191505060405180910390f35b6101346004803603604081101561011457600080fd5b8101908080359060200190929190803590602001909291905050506105a9565b6040518082815260200191505060405180910390f35b610152610661565b005b61015c6106a4565b005b6101666106e6565b005b60008073ffffffffffffffffffffffffffffffffffffffff166000809054906101000a900473ffffffffffffffffffffffffffffffffffffffff1673ffffffffffffffffffffffffffffffffffffffff161415905090565b600060028111156101cd57fe5b600160149054906101000a900460ff1660028111156101e857fe5b14156102125760018060146101000a81548160ff0219169083600281111561020c57fe5b02179055505b6000600281111561021f57fe5b6002836003811061022c57fe5b01826003811061023857fe5b602091828204019190069054906101000a900460ff16600281111561025957fe5b146102cc576040517f08c379a00000000000000000000000000000000000000000000000000000000081526004018080602001828103825260138152602001807f506f73696369c3b36e206e6f2076616c6964610000000000000000000000000081525060200191505060405180910390fd5b600160149054906101000a900460ff16600283600381106102e957fe5b0182600381106102f557fe5b602091828204019190066101000a81548160ff0219169083600281111561031857fe5b021790555060006103276109f9565b90506000806001600281111561033957fe5b83600281111561034557fe5b141561035057600191505b60028081111561035c57fe5b83600281111561036857fe5b141561037357600291505b6000600281111561038057fe5b83600281111561038c57fe5b141561039757600091505b600160028111156103a457fe5b600160149054906101000a900460ff1660028111156103bf57fe5b14156103ca57600190505b6002808111156103d657fe5b600160149054906101000a900460ff1660028111156103f157fe5b14156103fc57600290505b7f015c275a2b66814ef55b794f7c9afb0c726bf9d0d35c6f6df4732c2711729a1c858583856040518085815260200184815260200183815260200182815260200194505050505060405180910390a16000600281111561045857fe5b83600281111561046457fe5b14610476576104716106e6565b6104f2565b6001600281111561048357fe5b600160149054906101000a900460ff16600281111561049e57fe5b14156104cd576002600160146101000a81548160ff021916908360028111156104c357fe5b02179055506104f1565b60018060146101000a81548160ff021916908360028111156104eb57fe5b02179055505b5b5050505050565b60008073ffffffffffffffffffffffffffffffffffffffff166000809054906101000a900473ffffffffffffffffffffffffffffffffffffffff1673ffffffffffffffffffffffffffffffffffffffff1614806105a45750600073ffffffffffffffffffffffffffffffffffffffff16600160009054906101000a900473ffffffffffffffffffffffffffffffffffffffff1673ffffffffffffffffffffffffffffffffffffffff16145b905090565b6000600160028111156105b857fe5b600284600381106105c557fe5b0183600381106105d157fe5b602091828204019190069054906101000a900460ff1660028111156105f257fe5b1415610601576001905061065b565b60028081111561060d57fe5b6002846003811061061a57fe5b01836003811061062657fe5b602091828204019190069054906101000a900460ff16600281111561064757fe5b1415610656576002905061065b565b600090505b92915050565b33600160006101000a81548173ffffffffffffffffffffffffffffffffffffffff021916908373ffffffffffffffffffffffffffffffffffffffff160217905550565b336000806101000a81548173ffffffffffffffffffffffffffffffffffffffff021916908373ffffffffffffffffffffffffffffffffffffffff160217905550565b60008060006101000a81548173ffffffffffffffffffffffffffffffffffffffff021916908373ffffffffffffffffffffffffffffffffffffffff1602179055506000600160006101000a81548173ffffffffffffffffffffffffffffffffffffffff021916908373ffffffffffffffffffffffffffffffffffffffff1602179055506000600160146101000a81548160ff0219169083600281111561078857fe5b02179055506000600260006003811061079d57fe5b016000600381106107aa57fe5b602091828204019190066101000a81548160ff021916908360028111156107cd57fe5b0217905550600060026000600381106107e257fe5b016001600381106107ef57fe5b602091828204019190066101000a81548160ff0219169083600281111561081257fe5b02179055506000600260006003811061082757fe5b0160026003811061083457fe5b602091828204019190066101000a81548160ff0219169083600281111561085757fe5b02179055506000600260016003811061086c57fe5b0160006003811061087957fe5b602091828204019190066101000a81548160ff0219169083600281111561089c57fe5b0217905550600060026001600381106108b157fe5b016001600381106108be57fe5b602091828204019190066101000a81548160ff021916908360028111156108e157fe5b0217905550600060026001600381106108f657fe5b0160026003811061090357fe5b602091828204019190066101000a81548160ff0219169083600281111561092657fe5b021790555060006002806003811061093a57fe5b0160006003811061094757fe5b602091828204019190066101000a81548160ff0219169083600281111561096a57fe5b021790555060006002806003811061097e57fe5b0160016003811061098b57fe5b602091828204019190066101000a81548160ff021916908360028111156109ae57fe5b02179055506000600280600381106109c257fe5b016002600381106109cf57fe5b602091828204019190066101000a81548160ff021916908360028111156109f257fe5b0217905550565b600080600090505b6003811015610d6c5760028160038110610a1757fe5b01600160038110610a2457fe5b602091828204019190069054906101000a900460ff166002811115610a4557fe5b60028260038110610a5257fe5b01600060038110610a5f57fe5b602091828204019190069054906101000a900460ff166002811115610a8057fe5b148015610b00575060028160038110610a9557fe5b01600260038110610aa257fe5b602091828204019190069054906101000a900460ff166002811115610ac357fe5b60028260038110610ad057fe5b01600060038110610add57fe5b602091828204019190069054906101000a900460ff166002811115610afe57fe5b145b15610bb55760016002811115610b1257fe5b60028260038110610b1f57fe5b01600060038110610b2c57fe5b602091828204019190069054906101000a900460ff166002811115610b4d57fe5b1415610b5d5760019150506110ce565b600280811115610b6957fe5b60028260038110610b7657fe5b01600060038110610b8357fe5b602091828204019190069054906101000a900460ff166002811115610ba457fe5b1415610bb45760029150506110ce565b5b6002600160038110610bc357fe5b018160038110610bcf57fe5b602091828204019190069054906101000a900460ff166002811115610bf057fe5b6002600060038110610bfe57fe5b018260038110610c0a57fe5b602091828204019190069054906101000a900460ff166002811115610c2b57fe5b148015610caa575060028060038110610c4057fe5b018160038110610c4c57fe5b602091828204019190069054906101000a900460ff166002811115610c6d57fe5b6002600060038110610c7b57fe5b018260038110610c8757fe5b602091828204019190069054906101000a900460ff166002811115610ca857fe5b145b15610d5f5760016002811115610cbc57fe5b6002600060038110610cca57fe5b018260038110610cd657fe5b602091828204019190069054906101000a900460ff166002811115610cf757fe5b1415610d075760019150506110ce565b600280811115610d1357fe5b6002600060038110610d2157fe5b018260038110610d2d57fe5b602091828204019190069054906101000a900460ff166002811115610d4e57fe5b1415610d5e5760029150506110ce565b5b8080600101915050610a01565b506002600160038110610d7b57fe5b01600160038110610d8857fe5b602091828204019190069054906101000a900460ff166002811115610da957fe5b6002600060038110610db757fe5b01600060038110610dc457fe5b602091828204019190069054906101000a900460ff166002811115610de557fe5b148015610e66575060028060038110610dfa57fe5b01600260038110610e0757fe5b602091828204019190069054906101000a900460ff166002811115610e2857fe5b6002600060038110610e3657fe5b01600060038110610e4357fe5b602091828204019190069054906101000a900460ff166002811115610e6457fe5b145b15610f1b5760016002811115610e7857fe5b6002600060038110610e8657fe5b01600060038110610e9357fe5b602091828204019190069054906101000a900460ff166002811115610eb457fe5b1415610ec357600190506110ce565b600280811115610ecf57fe5b6002600060038110610edd57fe5b01600060038110610eea57fe5b602091828204019190069054906101000a900460ff166002811115610f0b57fe5b1415610f1a57600290506110ce565b5b6002600160038110610f2957fe5b01600160038110610f3657fe5b602091828204019190069054906101000a900460ff166002811115610f5757fe5b6002600060038110610f6557fe5b01600260038110610f7257fe5b602091828204019190069054906101000a900460ff166002811115610f9357fe5b148015611014575060028060038110610fa857fe5b01600060038110610fb557fe5b602091828204019190069054906101000a900460ff166002811115610fd657fe5b6002600060038110610fe457fe5b01600260038110610ff157fe5b602091828204019190069054906101000a900460ff16600281111561101257fe5b145b156110c9576001600281111561102657fe5b600260006003811061103457fe5b0160026003811061104157fe5b602091828204019190069054906101000a900460ff16600281111561106257fe5b141561107157600190506110ce565b60028081111561107d57fe5b600260006003811061108b57fe5b0160026003811061109857fe5b602091828204019190069054906101000a900460ff1660028111156110b957fe5b14156110c857600290506110ce565b5b600090505b9056fea265627a7a723158204ac4cc4833ca1c19d15dd1d9714c7082ca5efaac5baa10f462afdce754ef148664736f6c63430005100032",
  "source": "pragma solidity >0.4.2;\n\n\ncontract TresRaya {\n    enum Opciones {vacio, jugador1, jugador2}\n\n    address player1;\n    address player2;\n    Opciones turno;\n    Opciones[3][3] tablero;\n\n    function reset() public {\n        player1 = address(0);\n        player2 = address(0);\n        turno = Opciones.vacio;\n        tablero[0][0] = Opciones.vacio;\n        tablero[0][1] = Opciones.vacio;\n        tablero[0][2] = Opciones.vacio;\n        tablero[1][0] = Opciones.vacio;\n        tablero[1][1] = Opciones.vacio;\n        tablero[1][2] = Opciones.vacio;\n        tablero[2][0] = Opciones.vacio;\n        tablero[2][1] = Opciones.vacio;\n        tablero[2][2] = Opciones.vacio;\n    }\n\n    constructor() public {\n        reset();\n    }\n\n    function getTablero(uint i, uint j) public view returns (uint) {\n        if (tablero[i][j] == Opciones.jugador1){\n            return 1;\n        } else {\n            if (tablero[i][j] == Opciones.jugador2) {\n                return 2;\n            } else {\n                return 0;\n            }\n        }\n    }\n\n    function hayHueco() public view returns(bool){\n        return player1 == address(0) || player2 == address(0);\n    }\n\n    function hayJugador1() public view returns(bool){\n        return player1 != address(0);\n    }\n\n    function setPlayer1() public {\n        player1 = msg.sender;\n    }\n\n    function setPlayer2() public {\n        // require(player1 != msg.sender, \"Los jugadores tienen que ser distintos\");\n        player2 = msg.sender;\n    }\n\n    event movimientoRealizado(uint x, uint y, uint turno,uint ganador);\n\n    function movimiento(uint x, uint y) public{\n        if (turno == Opciones.vacio) {\n            turno = Opciones.jugador1;\n        }\n        // uint salida = 0;\n        // require(\n        //     turno == Opciones.jugador1 && msg.sender == player1,\n        //     \"Es el turno del jugador 1\"\n        // );\n        // require(\n        //     turno == Opciones.jugador2 && msg.sender == player2,\n        //     \"Es el turno del jugador 2\"\n        // );\n        require(tablero[x][y] == Opciones.vacio, \"Posición no valida\");\n        tablero[x][y] = turno;\n        Opciones ganador = hayGanador();\n        uint intganador;\n        uint intturno;\n        if(ganador == Opciones.jugador1){intganador = 1;}\n        if(ganador == Opciones.jugador2){intganador = 2;}\n        if(ganador == Opciones.vacio){intganador = 0;}\n        if(turno == Opciones.jugador1){intturno = 1;}\n        if(turno == Opciones.jugador2){intturno = 2;}\n        emit movimientoRealizado(x, y, intturno, intganador);\n        if (ganador != Opciones.vacio) {\n            // if (ganador == Opciones.jugador1) {\n            //     salida = 1;\n            // } else {\n            //     salida = 2;\n            // }\n            reset();\n        } else {\n            if (turno == Opciones.jugador1) {\n                turno = Opciones.jugador2;\n            } else {\n                turno = Opciones.jugador1;\n            }\n        }\n    }\n\n    function hayGanador() private view returns (Opciones) {\n        // Comprobamos las filas y las columnas\n        for (uint256 i = 0; i < 3; i++) {\n            // filas\n            if (\n                tablero[i][0] == tablero[i][1] && tablero[i][0] == tablero[i][2]\n            ) {\n                if (tablero[i][0] == Opciones.jugador1) {\n                    return Opciones.jugador1;\n                }\n                if (tablero[i][0] == Opciones.jugador2) {\n                    return Opciones.jugador2;\n                }\n            }\n            // columnas\n            if (\n                tablero[0][i] == tablero[1][i] && tablero[0][i] == tablero[2][i]\n            ) {\n                if (tablero[0][i] == Opciones.jugador1) {\n                    return Opciones.jugador1;\n                }\n                if (tablero[0][i] == Opciones.jugador2) {\n                    return Opciones.jugador2;\n                }\n            }\n        }\n        // Diagonales\n        if (tablero[0][0] == tablero[1][1] && tablero[0][0] == tablero[2][2]) {\n            if (tablero[0][0] == Opciones.jugador1) {\n                return Opciones.jugador1;\n            }\n            if (tablero[0][0] == Opciones.jugador2) {\n                return Opciones.jugador2;\n            }\n        }\n        if (tablero[0][2] == tablero[1][1] && tablero[0][2] == tablero[2][0]) {\n            if (tablero[0][2] == Opciones.jugador1) {\n                return Opciones.jugador1;\n            }\n            if (tablero[0][2] == Opciones.jugador2) {\n                return Opciones.jugador2;\n            }\n        }\n        // Si no se a encontrado ganador devolvemos vacio\n        return Opciones.vacio;\n    }\n}\n",
  "sourcePath": "/home/marcos/Escritorio/TFG/3raya/contracts/TresRaya.sol",
  "compiler": {
    "name": "solc",
    "version": "0.5.16+commit.9c3226ce.Emscripten.clang"
  },
  "schemaVersion": "3.1.0",
  "updatedAt": "2020-05-25T20:53:49.147Z",
  "networkType": "ethereum",
  "devdoc": {
    "methods": {}
  },
  "userdoc": {
    "methods": {}
  }
}