{
  "contractName": "TresRaya",
  "abi": [
    {
      "inputs": [],
      "payable": false,
      "stateMutability": "nonpayable",
      "type": "constructor"
    },
    {
      "anonymous": false,
      "inputs": [
        {
          "indexed": false,
          "internalType": "uint256",
          "name": "x",
          "type": "uint256"
        },
        {
          "indexed": false,
          "internalType": "uint256",
          "name": "y",
          "type": "uint256"
        },
        {
          "indexed": false,
          "internalType": "uint256",
          "name": "turno",
          "type": "uint256"
        },
        {
          "indexed": false,
          "internalType": "uint256",
          "name": "ganador",
          "type": "uint256"
        }
      ],
      "name": "movimientoRealizado",
      "type": "event"
    },
    {
      "constant": false,
      "inputs": [],
      "name": "reset",
      "outputs": [],
      "payable": false,
      "stateMutability": "nonpayable",
      "type": "function"
    },
    {
      "constant": true,
      "inputs": [
        {
          "internalType": "uint256",
          "name": "i",
          "type": "uint256"
        },
        {
          "internalType": "uint256",
          "name": "j",
          "type": "uint256"
        }
      ],
      "name": "getTablero",
      "outputs": [
        {
          "internalType": "uint256",
          "name": "",
          "type": "uint256"
        }
      ],
      "payable": false,
      "stateMutability": "view",
      "type": "function"
    },
    {
      "constant": true,
      "inputs": [],
      "name": "hayHueco",
      "outputs": [
        {
          "internalType": "bool",
          "name": "",
          "type": "bool"
        }
      ],
      "payable": false,
      "stateMutability": "view",
      "type": "function"
    },
    {
      "constant": true,
      "inputs": [],
      "name": "hayJugador1",
      "outputs": [
        {
          "internalType": "bool",
          "name": "",
          "type": "bool"
        }
      ],
      "payable": false,
      "stateMutability": "view",
      "type": "function"
    },
    {
      "constant": false,
      "inputs": [],
      "name": "setPlayer1",
      "outputs": [],
      "payable": false,
      "stateMutability": "nonpayable",
      "type": "function"
    },
    {
      "constant": false,
      "inputs": [],
      "name": "setPlayer2",
      "outputs": [],
      "payable": false,
      "stateMutability": "nonpayable",
      "type": "function"
    },
    {
      "constant": false,
      "inputs": [
        {
          "internalType": "uint256",
          "name": "x",
          "type": "uint256"
        },
        {
          "internalType": "uint256",
          "name": "y",
          "type": "uint256"
        }
      ],
      "name": "movimiento",
      "outputs": [],
      "payable": false,
      "stateMutability": "nonpayable",
      "type": "function"
    }
  ],
  "bytecode": "0x60806040523480156200001157600080fd5b50620000226200002860201b60201c565b62000357565b60008060006101000a81548173ffffffffffffffffffffffffffffffffffffffff021916908373ffffffffffffffffffffffffffffffffffffffff1602179055506000600160006101000a81548173ffffffffffffffffffffffffffffffffffffffff021916908373ffffffffffffffffffffffffffffffffffffffff1602179055506000600160146101000a81548160ff02191690836002811115620000cb57fe5b021790555060006002600060038110620000e157fe5b01600060038110620000ef57fe5b602091828204019190066101000a81548160ff021916908360028111156200011357fe5b0217905550600060026000600381106200012957fe5b016001600381106200013757fe5b602091828204019190066101000a81548160ff021916908360028111156200015b57fe5b0217905550600060026000600381106200017157fe5b016002600381106200017f57fe5b602091828204019190066101000a81548160ff02191690836002811115620001a357fe5b021790555060006002600160038110620001b957fe5b01600060038110620001c757fe5b602091828204019190066101000a81548160ff02191690836002811115620001eb57fe5b0217905550600060026001600381106200020157fe5b016001600381106200020f57fe5b602091828204019190066101000a81548160ff021916908360028111156200023357fe5b0217905550600060026001600381106200024957fe5b016002600381106200025757fe5b602091828204019190066101000a81548160ff021916908360028111156200027b57fe5b02179055506000600280600381106200029057fe5b016000600381106200029e57fe5b602091828204019190066101000a81548160ff02191690836002811115620002c257fe5b0217905550600060028060038110620002d757fe5b01600160038110620002e557fe5b602091828204019190066101000a81548160ff021916908360028111156200030957fe5b02179055506000600280600381106200031e57fe5b016002600381106200032c57fe5b602091828204019190066101000a81548160ff021916908360028111156200035057fe5b0217905550565b6111ca80620003676000396000f3fe608060405234801561001057600080fd5b506004361061007d5760003560e01c8063a6ade7341161005b578063a6ade734146100fe578063cde1adf11461014a578063d582f13114610154578063d826f88f1461015e5761007d565b80630e71a9a91461008257806328d0124c146100a457806398b10dc7146100dc575b600080fd5b61008a610168565b604051808215151515815260200191505060405180910390f35b6100da600480360360408110156100ba57600080fd5b8101908080359060200190929190803590602001909291905050506101c0565b005b6100e4610518565b604051808215151515815260200191505060405180910390f35b6101346004803603604081101561011457600080fd5b8101908080359060200190929190803590602001909291905050506105c8565b6040518082815260200191505060405180910390f35b610152610680565b005b61015c6106c3565b005b610166610705565b005b60008073ffffffffffffffffffffffffffffffffffffffff166000809054906101000a900473ffffffffffffffffffffffffffffffffffffffff1673ffffffffffffffffffffffffffffffffffffffff161415905090565b600060028111156101cd57fe5b600160149054906101000a900460ff1660028111156101e857fe5b14156102125760018060146101000a81548160ff0219169083600281111561020c57fe5b02179055505b6000600281111561021f57fe5b6002836003811061022c57fe5b01826003811061023857fe5b602091828204019190069054906101000a900460ff16600281111561025957fe5b146102cc576040517f08c379a00000000000000000000000000000000000000000000000000000000081526004018080602001828103825260138152602001807f506f73696369c3b36e206e6f2076616c6964610000000000000000000000000081525060200191505060405180910390fd5b600160149054906101000a900460ff16600283600381106102e957fe5b0182600381106102f557fe5b602091828204019190066101000a81548160ff0219169083600281111561031857fe5b02179055506000610327610a18565b90506000806001600281111561033957fe5b83600281111561034557fe5b141561035057600191505b60028081111561035c57fe5b83600281111561036857fe5b141561037357600291505b6000600281111561038057fe5b83600281111561038c57fe5b141561039757600091505b61039f6110f0565b156103a957600391505b600160028111156103b657fe5b600160149054906101000a900460ff1660028111156103d157fe5b14156103dc57600190505b6002808111156103e857fe5b600160149054906101000a900460ff16600281111561040357fe5b141561040e57600290505b7f015c275a2b66814ef55b794f7c9afb0c726bf9d0d35c6f6df4732c2711729a1c858583856040518085815260200184815260200183815260200182815260200194505050505060405180910390a16000600281111561046a57fe5b83600281111561047657fe5b1415806104835750600382145b1561049557610490610705565b610511565b600160028111156104a257fe5b600160149054906101000a900460ff1660028111156104bd57fe5b14156104ec576002600160146101000a81548160ff021916908360028111156104e257fe5b0217905550610510565b60018060146101000a81548160ff0219169083600281111561050a57fe5b02179055505b5b5050505050565b60008073ffffffffffffffffffffffffffffffffffffffff166000809054906101000a900473ffffffffffffffffffffffffffffffffffffffff1673ffffffffffffffffffffffffffffffffffffffff1614806105c35750600073ffffffffffffffffffffffffffffffffffffffff16600160009054906101000a900473ffffffffffffffffffffffffffffffffffffffff1673ffffffffffffffffffffffffffffffffffffffff16145b905090565b6000600160028111156105d757fe5b600284600381106105e457fe5b0183600381106105f057fe5b602091828204019190069054906101000a900460ff16600281111561061157fe5b1415610620576001905061067a565b60028081111561062c57fe5b6002846003811061063957fe5b01836003811061064557fe5b602091828204019190069054906101000a900460ff16600281111561066657fe5b1415610675576002905061067a565b600090505b92915050565b33600160006101000a81548173ffffffffffffffffffffffffffffffffffffffff021916908373ffffffffffffffffffffffffffffffffffffffff160217905550565b336000806101000a81548173ffffffffffffffffffffffffffffffffffffffff021916908373ffffffffffffffffffffffffffffffffffffffff160217905550565b60008060006101000a81548173ffffffffffffffffffffffffffffffffffffffff021916908373ffffffffffffffffffffffffffffffffffffffff1602179055506000600160006101000a81548173ffffffffffffffffffffffffffffffffffffffff021916908373ffffffffffffffffffffffffffffffffffffffff1602179055506000600160146101000a81548160ff021916908360028111156107a757fe5b0217905550600060026000600381106107bc57fe5b016000600381106107c957fe5b602091828204019190066101000a81548160ff021916908360028111156107ec57fe5b02179055506000600260006003811061080157fe5b0160016003811061080e57fe5b602091828204019190066101000a81548160ff0219169083600281111561083157fe5b02179055506000600260006003811061084657fe5b0160026003811061085357fe5b602091828204019190066101000a81548160ff0219169083600281111561087657fe5b02179055506000600260016003811061088b57fe5b0160006003811061089857fe5b602091828204019190066101000a81548160ff021916908360028111156108bb57fe5b0217905550600060026001600381106108d057fe5b016001600381106108dd57fe5b602091828204019190066101000a81548160ff0219169083600281111561090057fe5b02179055506000600260016003811061091557fe5b0160026003811061092257fe5b602091828204019190066101000a81548160ff0219169083600281111561094557fe5b021790555060006002806003811061095957fe5b0160006003811061096657fe5b602091828204019190066101000a81548160ff0219169083600281111561098957fe5b021790555060006002806003811061099d57fe5b016001600381106109aa57fe5b602091828204019190066101000a81548160ff021916908360028111156109cd57fe5b02179055506000600280600381106109e157fe5b016002600381106109ee57fe5b602091828204019190066101000a81548160ff02191690836002811115610a1157fe5b0217905550565b600080600090505b6003811015610d8b5760028160038110610a3657fe5b01600160038110610a4357fe5b602091828204019190069054906101000a900460ff166002811115610a6457fe5b60028260038110610a7157fe5b01600060038110610a7e57fe5b602091828204019190069054906101000a900460ff166002811115610a9f57fe5b148015610b1f575060028160038110610ab457fe5b01600260038110610ac157fe5b602091828204019190069054906101000a900460ff166002811115610ae257fe5b60028260038110610aef57fe5b01600060038110610afc57fe5b602091828204019190069054906101000a900460ff166002811115610b1d57fe5b145b15610bd45760016002811115610b3157fe5b60028260038110610b3e57fe5b01600060038110610b4b57fe5b602091828204019190069054906101000a900460ff166002811115610b6c57fe5b1415610b7c5760019150506110ed565b600280811115610b8857fe5b60028260038110610b9557fe5b01600060038110610ba257fe5b602091828204019190069054906101000a900460ff166002811115610bc357fe5b1415610bd35760029150506110ed565b5b6002600160038110610be257fe5b018160038110610bee57fe5b602091828204019190069054906101000a900460ff166002811115610c0f57fe5b6002600060038110610c1d57fe5b018260038110610c2957fe5b602091828204019190069054906101000a900460ff166002811115610c4a57fe5b148015610cc9575060028060038110610c5f57fe5b018160038110610c6b57fe5b602091828204019190069054906101000a900460ff166002811115610c8c57fe5b6002600060038110610c9a57fe5b018260038110610ca657fe5b602091828204019190069054906101000a900460ff166002811115610cc757fe5b145b15610d7e5760016002811115610cdb57fe5b6002600060038110610ce957fe5b018260038110610cf557fe5b602091828204019190069054906101000a900460ff166002811115610d1657fe5b1415610d265760019150506110ed565b600280811115610d3257fe5b6002600060038110610d4057fe5b018260038110610d4c57fe5b602091828204019190069054906101000a900460ff166002811115610d6d57fe5b1415610d7d5760029150506110ed565b5b8080600101915050610a20565b506002600160038110610d9a57fe5b01600160038110610da757fe5b602091828204019190069054906101000a900460ff166002811115610dc857fe5b6002600060038110610dd657fe5b01600060038110610de357fe5b602091828204019190069054906101000a900460ff166002811115610e0457fe5b148015610e85575060028060038110610e1957fe5b01600260038110610e2657fe5b602091828204019190069054906101000a900460ff166002811115610e4757fe5b6002600060038110610e5557fe5b01600060038110610e6257fe5b602091828204019190069054906101000a900460ff166002811115610e8357fe5b145b15610f3a5760016002811115610e9757fe5b6002600060038110610ea557fe5b01600060038110610eb257fe5b602091828204019190069054906101000a900460ff166002811115610ed357fe5b1415610ee257600190506110ed565b600280811115610eee57fe5b6002600060038110610efc57fe5b01600060038110610f0957fe5b602091828204019190069054906101000a900460ff166002811115610f2a57fe5b1415610f3957600290506110ed565b5b6002600160038110610f4857fe5b01600160038110610f5557fe5b602091828204019190069054906101000a900460ff166002811115610f7657fe5b6002600060038110610f8457fe5b01600260038110610f9157fe5b602091828204019190069054906101000a900460ff166002811115610fb257fe5b148015611033575060028060038110610fc757fe5b01600060038110610fd457fe5b602091828204019190069054906101000a900460ff166002811115610ff557fe5b600260006003811061100357fe5b0160026003811061101057fe5b602091828204019190069054906101000a900460ff16600281111561103157fe5b145b156110e8576001600281111561104557fe5b600260006003811061105357fe5b0160026003811061106057fe5b602091828204019190069054906101000a900460ff16600281111561108157fe5b141561109057600190506110ed565b60028081111561109c57fe5b60026000600381106110aa57fe5b016002600381106110b757fe5b602091828204019190069054906101000a900460ff1660028111156110d857fe5b14156110e757600290506110ed565b5b600090505b90565b6000806001905060008090505b600381101561118c5760008090505b600381101561117e576000600281111561112257fe5b6002836003811061112f57fe5b01826003811061113b57fe5b602091828204019190069054906101000a900460ff16600281111561115c57fe5b14156111715760009250829350505050611192565b818060010192505061110c565b5080806001019150506110fd565b50809150505b9056fea265627a7a72315820dd4c7ac1fd5ea07ce763829f568228f0bad5c603e4f6c7a5562a72c657d46c3264736f6c63430005100032",
  "source": "pragma solidity >0.4.2;\n\n\ncontract TresRaya {\n    enum Opciones {vacio, jugador1, jugador2}\n\n    address player1;\n    address player2;\n    Opciones turno;\n    Opciones[3][3] tablero;\n\n    function reset() public {\n        player1 = address(0);\n        player2 = address(0);\n        turno = Opciones.vacio;\n        tablero[0][0] = Opciones.vacio;\n        tablero[0][1] = Opciones.vacio;\n        tablero[0][2] = Opciones.vacio;\n        tablero[1][0] = Opciones.vacio;\n        tablero[1][1] = Opciones.vacio;\n        tablero[1][2] = Opciones.vacio;\n        tablero[2][0] = Opciones.vacio;\n        tablero[2][1] = Opciones.vacio;\n        tablero[2][2] = Opciones.vacio;\n    }\n\n    constructor() public {\n        reset();\n    }\n\n    function getTablero(uint i, uint j) public view returns (uint) {\n        if (tablero[i][j] == Opciones.jugador1) {\n            return 1;\n        } else {\n            if (tablero[i][j] == Opciones.jugador2) {\n                return 2;\n            } else {\n                return 0;\n            }\n        }\n    }\n\n    function hayHueco() public view returns (bool) {\n        return player1 == address(0) || player2 == address(0);\n    }\n\n    function hayJugador1() public view returns (bool) {\n        return player1 != address(0);\n    }\n\n    function setPlayer1() public {\n        player1 = msg.sender;\n    }\n\n    function setPlayer2() public {\n        // require(player1 != msg.sender, \"Los jugadores tienen que ser distintos\");\n        player2 = msg.sender;\n    }\n\n    event movimientoRealizado(\n        uint x,\n        uint y,\n        uint turno,\n        uint ganador\n    );\n\n    function movimiento(uint x, uint y) public {\n        if (turno == Opciones.vacio) {\n            turno = Opciones.jugador1;\n        }\n        require(tablero[x][y] == Opciones.vacio, \"Posición no valida\");\n        tablero[x][y] = turno;\n        Opciones ganador = hayGanador();\n        uint intganador;\n        uint intturno;\n        if (ganador == Opciones.jugador1) {\n            intganador = 1;\n        }\n        if (ganador == Opciones.jugador2) {\n            intganador = 2;\n        }\n        if (ganador == Opciones.vacio) {\n            intganador = 0;\n        }\n        if(hayEmpate()){\n            intganador = 3;\n        }\n        if (turno == Opciones.jugador1) {\n            intturno = 1;\n        }\n        if (turno == Opciones.jugador2) {\n            intturno = 2;\n        }\n        emit movimientoRealizado(x, y, intturno, intganador);\n        if (ganador != Opciones.vacio || intganador == 3) {\n            reset();\n        } else {\n            if (turno == Opciones.jugador1) {\n                turno = Opciones.jugador2;\n            } else {\n                turno = Opciones.jugador1;\n            }\n        }\n    }\n\n    function hayEmpate() private view returns (bool) {\n        bool salida = true;\n        for (uint i = 0; i < 3; i++) {\n            for (uint j = 0; j < 3; i++) {\n                if(tablero[i][j] == Opciones.vacio){\n                    salida = false;\n                    return salida;\n                }\n            }\n        }\n        return salida;\n    }\n\n    function hayGanador() private view returns (Opciones) {\n        // Comprobamos las filas y las columnas\n        for (uint i = 0; i < 3; i++) {\n            // filas\n            if (\n                tablero[i][0] == tablero[i][1] && tablero[i][0] == tablero[i][2]\n            ) {\n                if (tablero[i][0] == Opciones.jugador1) {\n                    return Opciones.jugador1;\n                }\n                if (tablero[i][0] == Opciones.jugador2) {\n                    return Opciones.jugador2;\n                }\n            }\n            // columnas\n            if (\n                tablero[0][i] == tablero[1][i] && tablero[0][i] == tablero[2][i]\n            ) {\n                if (tablero[0][i] == Opciones.jugador1) {\n                    return Opciones.jugador1;\n                }\n                if (tablero[0][i] == Opciones.jugador2) {\n                    return Opciones.jugador2;\n                }\n            }\n        }\n        // Diagonales\n        if (tablero[0][0] == tablero[1][1] && tablero[0][0] == tablero[2][2]) {\n            if (tablero[0][0] == Opciones.jugador1) {\n                return Opciones.jugador1;\n            }\n            if (tablero[0][0] == Opciones.jugador2) {\n                return Opciones.jugador2;\n            }\n        }\n        if (tablero[0][2] == tablero[1][1] && tablero[0][2] == tablero[2][0]) {\n            if (tablero[0][2] == Opciones.jugador1) {\n                return Opciones.jugador1;\n            }\n            if (tablero[0][2] == Opciones.jugador2) {\n                return Opciones.jugador2;\n            }\n        }\n        // Si no se a encontrado ganador devolvemos vacio\n        return Opciones.vacio;\n    }\n}\n",
  "sourcePath": "/home/marcos/Escritorio/TFG/3raya/contracts/TresRaya.sol",
  "compiler": {
    "name": "solc",
    "version": "0.5.16+commit.9c3226ce.Emscripten.clang"
  },
  "schemaVersion": "3.1.0",
  "updatedAt": "2020-05-26T10:09:19.171Z",
  "networkType": "ethereum",
  "devdoc": {
    "methods": {}
  },
  "userdoc": {
    "methods": {}
  }
}