{
  "contractName": "TresRaya",
  "abi": [
    {
      "inputs": [],
      "payable": false,
      "stateMutability": "nonpayable",
      "type": "constructor"
    },
    {
      "anonymous": false,
      "inputs": [
        {
          "indexed": false,
          "internalType": "uint256",
          "name": "x",
          "type": "uint256"
        },
        {
          "indexed": false,
          "internalType": "uint256",
          "name": "y",
          "type": "uint256"
        },
        {
          "indexed": false,
          "internalType": "uint256",
          "name": "turno",
          "type": "uint256"
        },
        {
          "indexed": false,
          "internalType": "uint256",
          "name": "ganador",
          "type": "uint256"
        }
      ],
      "name": "movimientoRealizado",
      "type": "event"
    },
    {
      "constant": false,
      "inputs": [],
      "name": "reset",
      "outputs": [],
      "payable": false,
      "stateMutability": "nonpayable",
      "type": "function"
    },
    {
      "constant": true,
      "inputs": [],
      "name": "hayHueco",
      "outputs": [
        {
          "internalType": "bool",
          "name": "",
          "type": "bool"
        }
      ],
      "payable": false,
      "stateMutability": "view",
      "type": "function"
    },
    {
      "constant": true,
      "inputs": [],
      "name": "hayJugador1",
      "outputs": [
        {
          "internalType": "bool",
          "name": "",
          "type": "bool"
        }
      ],
      "payable": false,
      "stateMutability": "view",
      "type": "function"
    },
    {
      "constant": false,
      "inputs": [],
      "name": "setPlayer1",
      "outputs": [],
      "payable": false,
      "stateMutability": "nonpayable",
      "type": "function"
    },
    {
      "constant": false,
      "inputs": [],
      "name": "setPlayer2",
      "outputs": [],
      "payable": false,
      "stateMutability": "nonpayable",
      "type": "function"
    },
    {
      "constant": false,
      "inputs": [
        {
          "internalType": "uint256",
          "name": "x",
          "type": "uint256"
        },
        {
          "internalType": "uint256",
          "name": "y",
          "type": "uint256"
        }
      ],
      "name": "movimiento",
      "outputs": [],
      "payable": false,
      "stateMutability": "nonpayable",
      "type": "function"
    }
  ],
  "bytecode": "0x60806040523480156200001157600080fd5b50620000226200002860201b60201c565b62000357565b60008060006101000a81548173ffffffffffffffffffffffffffffffffffffffff021916908373ffffffffffffffffffffffffffffffffffffffff1602179055506000600160006101000a81548173ffffffffffffffffffffffffffffffffffffffff021916908373ffffffffffffffffffffffffffffffffffffffff1602179055506000600160146101000a81548160ff02191690836002811115620000cb57fe5b021790555060006002600060038110620000e157fe5b01600060038110620000ef57fe5b602091828204019190066101000a81548160ff021916908360028111156200011357fe5b0217905550600060026000600381106200012957fe5b016001600381106200013757fe5b602091828204019190066101000a81548160ff021916908360028111156200015b57fe5b0217905550600060026000600381106200017157fe5b016002600381106200017f57fe5b602091828204019190066101000a81548160ff02191690836002811115620001a357fe5b021790555060006002600160038110620001b957fe5b01600060038110620001c757fe5b602091828204019190066101000a81548160ff02191690836002811115620001eb57fe5b0217905550600060026001600381106200020157fe5b016001600381106200020f57fe5b602091828204019190066101000a81548160ff021916908360028111156200023357fe5b0217905550600060026001600381106200024957fe5b016002600381106200025757fe5b602091828204019190066101000a81548160ff021916908360028111156200027b57fe5b02179055506000600280600381106200029057fe5b016000600381106200029e57fe5b602091828204019190066101000a81548160ff02191690836002811115620002c257fe5b0217905550600060028060038110620002d757fe5b01600160038110620002e557fe5b602091828204019190066101000a81548160ff021916908360028111156200030957fe5b02179055506000600280600381106200031e57fe5b016002600381106200032c57fe5b602091828204019190066101000a81548160ff021916908360028111156200035057fe5b0217905550565b6110ab80620003676000396000f3fe608060405234801561001057600080fd5b50600436106100625760003560e01c80630e71a9a91461006757806328d0124c1461008957806398b10dc7146100c1578063cde1adf1146100e3578063d582f131146100ed578063d826f88f146100f7575b600080fd5b61006f610101565b604051808215151515815260200191505060405180910390f35b6100bf6004803603604081101561009f57600080fd5b810190808035906020019092919080359060200190929190505050610159565b005b6100c96104b1565b604051808215151515815260200191505060405180910390f35b6100eb610561565b005b6100f56105a4565b005b6100ff6105e6565b005b60008073ffffffffffffffffffffffffffffffffffffffff166000809054906101000a900473ffffffffffffffffffffffffffffffffffffffff1673ffffffffffffffffffffffffffffffffffffffff161415905090565b6000600281111561016657fe5b600160149054906101000a900460ff16600281111561018157fe5b14156101ab5760018060146101000a81548160ff021916908360028111156101a557fe5b02179055505b600060028111156101b857fe5b600283600381106101c557fe5b0182600381106101d157fe5b602091828204019190069054906101000a900460ff1660028111156101f257fe5b14610265576040517f08c379a00000000000000000000000000000000000000000000000000000000081526004018080602001828103825260138152602001807f506f73696369c3b36e206e6f2076616c6964610000000000000000000000000081525060200191505060405180910390fd5b600160149054906101000a900460ff166002836003811061028257fe5b01826003811061028e57fe5b602091828204019190066101000a81548160ff021916908360028111156102b157fe5b021790555060006102c06108f9565b9050600080600160028111156102d257fe5b8360028111156102de57fe5b14156102e957600191505b6002808111156102f557fe5b83600281111561030157fe5b141561030c57600291505b6000600281111561031957fe5b83600281111561032557fe5b141561033057600091505b610338610fd1565b1561034257600391505b6001600281111561034f57fe5b600160149054906101000a900460ff16600281111561036a57fe5b141561037557600190505b60028081111561038157fe5b600160149054906101000a900460ff16600281111561039c57fe5b14156103a757600290505b7f015c275a2b66814ef55b794f7c9afb0c726bf9d0d35c6f6df4732c2711729a1c858583856040518085815260200184815260200183815260200182815260200194505050505060405180910390a16000600281111561040357fe5b83600281111561040f57fe5b14158061041c5750600382145b1561042e576104296105e6565b6104aa565b6001600281111561043b57fe5b600160149054906101000a900460ff16600281111561045657fe5b1415610485576002600160146101000a81548160ff0219169083600281111561047b57fe5b02179055506104a9565b60018060146101000a81548160ff021916908360028111156104a357fe5b02179055505b5b5050505050565b60008073ffffffffffffffffffffffffffffffffffffffff166000809054906101000a900473ffffffffffffffffffffffffffffffffffffffff1673ffffffffffffffffffffffffffffffffffffffff16148061055c5750600073ffffffffffffffffffffffffffffffffffffffff16600160009054906101000a900473ffffffffffffffffffffffffffffffffffffffff1673ffffffffffffffffffffffffffffffffffffffff16145b905090565b33600160006101000a81548173ffffffffffffffffffffffffffffffffffffffff021916908373ffffffffffffffffffffffffffffffffffffffff160217905550565b336000806101000a81548173ffffffffffffffffffffffffffffffffffffffff021916908373ffffffffffffffffffffffffffffffffffffffff160217905550565b60008060006101000a81548173ffffffffffffffffffffffffffffffffffffffff021916908373ffffffffffffffffffffffffffffffffffffffff1602179055506000600160006101000a81548173ffffffffffffffffffffffffffffffffffffffff021916908373ffffffffffffffffffffffffffffffffffffffff1602179055506000600160146101000a81548160ff0219169083600281111561068857fe5b02179055506000600260006003811061069d57fe5b016000600381106106aa57fe5b602091828204019190066101000a81548160ff021916908360028111156106cd57fe5b0217905550600060026000600381106106e257fe5b016001600381106106ef57fe5b602091828204019190066101000a81548160ff0219169083600281111561071257fe5b02179055506000600260006003811061072757fe5b0160026003811061073457fe5b602091828204019190066101000a81548160ff0219169083600281111561075757fe5b02179055506000600260016003811061076c57fe5b0160006003811061077957fe5b602091828204019190066101000a81548160ff0219169083600281111561079c57fe5b0217905550600060026001600381106107b157fe5b016001600381106107be57fe5b602091828204019190066101000a81548160ff021916908360028111156107e157fe5b0217905550600060026001600381106107f657fe5b0160026003811061080357fe5b602091828204019190066101000a81548160ff0219169083600281111561082657fe5b021790555060006002806003811061083a57fe5b0160006003811061084757fe5b602091828204019190066101000a81548160ff0219169083600281111561086a57fe5b021790555060006002806003811061087e57fe5b0160016003811061088b57fe5b602091828204019190066101000a81548160ff021916908360028111156108ae57fe5b02179055506000600280600381106108c257fe5b016002600381106108cf57fe5b602091828204019190066101000a81548160ff021916908360028111156108f257fe5b0217905550565b600080600090505b6003811015610c6c576002816003811061091757fe5b0160016003811061092457fe5b602091828204019190069054906101000a900460ff16600281111561094557fe5b6002826003811061095257fe5b0160006003811061095f57fe5b602091828204019190069054906101000a900460ff16600281111561098057fe5b148015610a0057506002816003811061099557fe5b016002600381106109a257fe5b602091828204019190069054906101000a900460ff1660028111156109c357fe5b600282600381106109d057fe5b016000600381106109dd57fe5b602091828204019190069054906101000a900460ff1660028111156109fe57fe5b145b15610ab55760016002811115610a1257fe5b60028260038110610a1f57fe5b01600060038110610a2c57fe5b602091828204019190069054906101000a900460ff166002811115610a4d57fe5b1415610a5d576001915050610fce565b600280811115610a6957fe5b60028260038110610a7657fe5b01600060038110610a8357fe5b602091828204019190069054906101000a900460ff166002811115610aa457fe5b1415610ab4576002915050610fce565b5b6002600160038110610ac357fe5b018160038110610acf57fe5b602091828204019190069054906101000a900460ff166002811115610af057fe5b6002600060038110610afe57fe5b018260038110610b0a57fe5b602091828204019190069054906101000a900460ff166002811115610b2b57fe5b148015610baa575060028060038110610b4057fe5b018160038110610b4c57fe5b602091828204019190069054906101000a900460ff166002811115610b6d57fe5b6002600060038110610b7b57fe5b018260038110610b8757fe5b602091828204019190069054906101000a900460ff166002811115610ba857fe5b145b15610c5f5760016002811115610bbc57fe5b6002600060038110610bca57fe5b018260038110610bd657fe5b602091828204019190069054906101000a900460ff166002811115610bf757fe5b1415610c07576001915050610fce565b600280811115610c1357fe5b6002600060038110610c2157fe5b018260038110610c2d57fe5b602091828204019190069054906101000a900460ff166002811115610c4e57fe5b1415610c5e576002915050610fce565b5b8080600101915050610901565b506002600160038110610c7b57fe5b01600160038110610c8857fe5b602091828204019190069054906101000a900460ff166002811115610ca957fe5b6002600060038110610cb757fe5b01600060038110610cc457fe5b602091828204019190069054906101000a900460ff166002811115610ce557fe5b148015610d66575060028060038110610cfa57fe5b01600260038110610d0757fe5b602091828204019190069054906101000a900460ff166002811115610d2857fe5b6002600060038110610d3657fe5b01600060038110610d4357fe5b602091828204019190069054906101000a900460ff166002811115610d6457fe5b145b15610e1b5760016002811115610d7857fe5b6002600060038110610d8657fe5b01600060038110610d9357fe5b602091828204019190069054906101000a900460ff166002811115610db457fe5b1415610dc35760019050610fce565b600280811115610dcf57fe5b6002600060038110610ddd57fe5b01600060038110610dea57fe5b602091828204019190069054906101000a900460ff166002811115610e0b57fe5b1415610e1a5760029050610fce565b5b6002600160038110610e2957fe5b01600160038110610e3657fe5b602091828204019190069054906101000a900460ff166002811115610e5757fe5b6002600060038110610e6557fe5b01600260038110610e7257fe5b602091828204019190069054906101000a900460ff166002811115610e9357fe5b148015610f14575060028060038110610ea857fe5b01600060038110610eb557fe5b602091828204019190069054906101000a900460ff166002811115610ed657fe5b6002600060038110610ee457fe5b01600260038110610ef157fe5b602091828204019190069054906101000a900460ff166002811115610f1257fe5b145b15610fc95760016002811115610f2657fe5b6002600060038110610f3457fe5b01600260038110610f4157fe5b602091828204019190069054906101000a900460ff166002811115610f6257fe5b1415610f715760019050610fce565b600280811115610f7d57fe5b6002600060038110610f8b57fe5b01600260038110610f9857fe5b602091828204019190069054906101000a900460ff166002811115610fb957fe5b1415610fc85760029050610fce565b5b600090505b90565b6000806001905060008090505b600381101561106d5760008090505b600381101561105f576000600281111561100357fe5b6002836003811061101057fe5b01826003811061101c57fe5b602091828204019190069054906101000a900460ff16600281111561103d57fe5b14156110525760009250829350505050611073565b8180600101925050610fed565b508080600101915050610fde565b50809150505b9056fea265627a7a72315820249fa06316d9212f63b74a46047115888f95e2c02be35667bb9fba6b172aaf1364736f6c63430005100032",
  "source": "pragma solidity >0.4.2;\n\n\ncontract TresRaya {\n    enum Opciones {vacio, jugador1, jugador2}\n\n    address player1;\n    address player2;\n    Opciones turno;\n    Opciones[3][3] tablero;\n\n    function reset() public {\n        player1 = address(0);\n        player2 = address(0);\n        turno = Opciones.vacio;\n        tablero[0][0] = Opciones.vacio;\n        tablero[0][1] = Opciones.vacio;\n        tablero[0][2] = Opciones.vacio;\n        tablero[1][0] = Opciones.vacio;\n        tablero[1][1] = Opciones.vacio;\n        tablero[1][2] = Opciones.vacio;\n        tablero[2][0] = Opciones.vacio;\n        tablero[2][1] = Opciones.vacio;\n        tablero[2][2] = Opciones.vacio;\n    }\n\n    constructor() public {\n        reset();\n    }\n\n    function hayHueco() public view returns (bool) {\n        return player1 == address(0) || player2 == address(0);\n    }\n\n    function hayJugador1() public view returns (bool) {\n        return player1 != address(0);\n    }\n\n    function setPlayer1() public {\n        player1 = msg.sender;\n    }\n\n    function setPlayer2() public {\n        // require(player1 != msg.sender, \"Los jugadores tienen que ser distintos\");\n        player2 = msg.sender;\n    }\n\n    event movimientoRealizado(\n        uint x,\n        uint y,\n        uint turno,\n        uint ganador\n    );\n\n    function movimiento(uint x, uint y) public {\n        if (turno == Opciones.vacio) {\n            turno = Opciones.jugador1;\n        }\n        require(tablero[x][y] == Opciones.vacio, \"Posición no valida\");\n        tablero[x][y] = turno;\n        Opciones ganador = hayGanador();\n        uint intganador;\n        uint intturno;\n        if (ganador == Opciones.jugador1) {\n            intganador = 1;\n        }\n        if (ganador == Opciones.jugador2) {\n            intganador = 2;\n        }\n        if (ganador == Opciones.vacio) {\n            intganador = 0;\n        }\n        if(hayEmpate()){\n            intganador = 3;\n        }\n        if (turno == Opciones.jugador1) {\n            intturno = 1;\n        }\n        if (turno == Opciones.jugador2) {\n            intturno = 2;\n        }\n        emit movimientoRealizado(x, y, intturno, intganador);\n        if (ganador != Opciones.vacio || intganador == 3) {\n            reset();\n        } else {\n            if (turno == Opciones.jugador1) {\n                turno = Opciones.jugador2;\n            } else {\n                turno = Opciones.jugador1;\n            }\n        }\n    }\n\n    function hayEmpate() private view returns (bool) {\n        bool salida = true;\n        for (uint i = 0; i < 3; i++) {\n            for (uint j = 0; j < 3; i++) {\n                if(tablero[i][j] == Opciones.vacio){\n                    salida = false;\n                    return salida;\n                }\n            }\n        }\n        return salida;\n    }\n\n    function hayGanador() private view returns (Opciones) {\n        // Comprobamos las filas y las columnas\n        for (uint i = 0; i < 3; i++) {\n            // filas\n            if (\n                tablero[i][0] == tablero[i][1] && tablero[i][0] == tablero[i][2]\n            ) {\n                if (tablero[i][0] == Opciones.jugador1) {\n                    return Opciones.jugador1;\n                }\n                if (tablero[i][0] == Opciones.jugador2) {\n                    return Opciones.jugador2;\n                }\n            }\n            // columnas\n            if (\n                tablero[0][i] == tablero[1][i] && tablero[0][i] == tablero[2][i]\n            ) {\n                if (tablero[0][i] == Opciones.jugador1) {\n                    return Opciones.jugador1;\n                }\n                if (tablero[0][i] == Opciones.jugador2) {\n                    return Opciones.jugador2;\n                }\n            }\n        }\n        // Diagonales\n        if (tablero[0][0] == tablero[1][1] && tablero[0][0] == tablero[2][2]) {\n            if (tablero[0][0] == Opciones.jugador1) {\n                return Opciones.jugador1;\n            }\n            if (tablero[0][0] == Opciones.jugador2) {\n                return Opciones.jugador2;\n            }\n        }\n        if (tablero[0][2] == tablero[1][1] && tablero[0][2] == tablero[2][0]) {\n            if (tablero[0][2] == Opciones.jugador1) {\n                return Opciones.jugador1;\n            }\n            if (tablero[0][2] == Opciones.jugador2) {\n                return Opciones.jugador2;\n            }\n        }\n        // Si no se a encontrado ganador devolvemos vacio\n        return Opciones.vacio;\n    }\n}\n",
  "sourcePath": "/home/marcos/Escritorio/TFG/3raya/contracts/TresRaya.sol",
  "compiler": {
    "name": "solc",
    "version": "0.5.16+commit.9c3226ce.Emscripten.clang"
  },
  "schemaVersion": "3.1.0",
  "updatedAt": "2020-07-13T15:38:13.935Z",
  "networkType": "ethereum",
  "devdoc": {
    "methods": {}
  },
  "userdoc": {
    "methods": {}
  }
}